S01500004F6E5F626F6172645F776966692E73726563DD
S11300000C9494000C94B3030C94B1000C94B100C0
S11300100C94B1000C94B1000C94B1000C94B10098
S11300200C94B1000C94B1000C94B1000C94B10088
S11300300C94B1000C94B1000C94B1000C94B10078
S11300400C946D0D0C94B1000C94E70D0C94BA0D46
S11300500C94B1000C94B1000C94B1000C94B10058
S11300600C94B1000C94B100050811081D0829086E
S11300709D0C35084A085F087408E10818094F09FF
S11300808609150A1E0A240A2D0A330A430A530A4A
S1130090630A730A7E0A890A940A9F0AAB0AC00A91
S11300A0270B330B480B540B690B750B8A0B960B00
S11300B0AB0BB70BCC0BD80BED0BF90B0E0C1A0CCE
S11300C02F0C3B0C500C5C0C710C7D0C920C610ED3
S11300D0730E850E970EA90EAD0EB10EB50EB90EA8
S11300E0F50EBD0EF50EF50EF50EF50EF50EF50E2C
S11300F0F50EF50EF50EF50EC10EC50EF50EC90E74
S1130100F50ECD0EF50ED10EF50ED50EF50ED90E5B
S1130110F50EDD0EF50EE10EF50EE50EF50EE90E0B
S1130120F50EED0EF50EF10E11241FBECFEFD8E043
S1130130DEBFCDBF11E0A0E0B1E0E4E2F3E202C033
S113014005900D92A230B107D9F724E0A2E0B1E006
S113015001C01D92A539B207E1F70E94B80C0C94B6
S113016090110C94000080E28093B80081E08093A9
S1130170B900089584EA8093BC008091BC00882370
S1130180E4F7089584E98093BC0008958093BB004C
S113019084E88093BC008091BC008823E4F7089530
S11301A084EC8093BC008091BC008823E4F78091A8
S11301B0BB00089584E88093BC008091BC00882330
S11301C0E4F78091BB0008950E94BA0080E90E9480
S11301D0C60083E00E94C6008FEF0E94C6008FEF26
S11301E00E94C6000E94C2000E94BA0080E90E94D8
S11301F0C60082E00E94C60080E00E94C60080E043
S11302000E94C6000E94C2000E94BA0080E90E94B7
S1130210C60081E00E94C60081EC0E94C60088EA04
S11302200E94C6000E94C20008950E94BA0080E99C
S11302300E94C60080E00E94C6000E94C2000E9484
S1130240BA0081E90E94C6000E94D0001092020107
S1130250809303010E94DA0020910201309103018E
S1130260282B30930301209302010E94C200809145
S11302700201909103010895CF93C82F0E94BA0000
S113028080E90E94C60081E00E94C600C23069F085
S113029018F4C13031F014C0C33059F0C43069F0DF
S11302A00FC081EC0E94C6000BC081ED0E94C60005
S11302B007C081EE0E94C60003C081EF0E94C60001
S11302C088EA0E94C6000E94C200CF910895F89463
S11302D0F999FECF92BD81BD60BD8FB384608FBBA1
S11302E08FB382608FBB78940895F894F999FECF08
S11302F092BD81BD8FB381608FBB789480B5089522
S11303000F931F93CF93DF93EC0103960E94750123
S113031090E0A0E0B0E0BA2FA92F982F882780930F
S11303200E0190930F01A0931001B0931101CE011F
S113033002960E94750140910E0150910F01609147
S1130340100170911101482B762F652F542F4427EB
S113035040930E0150930F016093100170931101AB
S1130360CE0101960E94750140910E0150910F013A
S11303706091100170911101482B762F652F542F35
S1130380442740930E0150930F0160931001709322
S11303901101CE010E94750140910E0150910F018F
S11303A060911001709111018A019B01082BC90110
S11303B0B80160930E0170930F0180931001909324
S11303C01101DF91CF911F910F910895CF92DF9288
S11303D0EF92FF92CF93DF93EC016A017B01642FCC
S11303E00E94670199278F2D7E2D6D2DCE010196D8
S11303F00E946701B70188279927CE0102960E94BF
S113040067016F2D772788279927CE0103960E94CD
S11304106701DF91CF91FF90EF90DF90CF90089527
S1130420CF93DF93EC01842F952FA62FB72F8093C2
S11304300A0190930B01A0930C01B0930D01642F5A
S1130440CE010E94670180910A0190910B01A09155
S11304500C01B0910D01692F7A2F8B2F9927CE01B2
S113046001960E94670180910A0190910B01A0916D
S11304700C01B0910D01BD0188279927CE01029688
S11304800E94670180910A0190910B01A0910C01D7
S1130490B0910D016B2F772788279927CE010396FA
S11304A00E946701DF91CF9108950F931F93CF931B
S11304B0DF93EC0103960E94750190E0A0E0B0E0A8
S11304C0BA2FA92F982F88278093060190930701AC
S11304D0A0930801B0930901CE0102960E94750110
S11304E04091060150910701609108017091090142
S11304F0482B762F652F542F4427409306015093A1
S113050007016093080170930901CE0101960E94CE
S113051075014091060150910701609108017091A5
S11305200901482B762F652F542F44274093060149
S1130530509307016093080170930901CE010E9452
S11305407501409106015091070160910801709175
S113055009018A019B01082BC901B80160930601B6
S1130560709307018093080190930901DF91CF9163
S11305701F910F910895CF93DF93EC0101960E9490
S113058075011092040180930501CE010E9475014A
S11305902091040130910501A901482BCA019093CF
S11305A0050180930401DF91CF9108951F93CF93A8
S11305B0DF93EC01172F0E946701612FCE01019692
S11305C00E946701DF91CF911F91089564E080E05C
S11305D090E00E94670165E081E090E00E9467017D
S11305E064E180E290E00E94670140E050E060E84E
S11305F07FE382E090E00E94100240E050E060E877
S11306007FE386E090E00E94100240E050E060E862
S11306107FE38AE090E00E94100240E050E060E84E
S11306207FE38EE090E00E94100240E050E060E83A
S11306307FE381E290E00E94100240E050E060E835
S11306407FE385E290E00E94100240E050E060E821
S11306507FE389E290E00E94100240E050E060E80D
S11306607FE38DE290E00E94100240E050E060E8F9
S11306707FE389E390E00E94100248E853E160E0E0
S113068070E081E390E00E94E6016AE070E082E1BC
S113069090E00E94D6026AE070E084E190E00E945B
S11306A0D6026AE070E086E190E00E94D6026AE039
S11306B070E088E190E00E94D60241E050E060E002
S11306C070E085E390E00E94E60140E050E0BA016A
S11306D08DE390E00E94E60140E050E0BA0181E43D
S11306E090E00E94E60140E050E0BA0185E490E029
S11306F00E94E60140E050E0BA0189E490E00E94E3
S1130700E60140E050E0BA018DE490E00E94E60189
S113071040E050E0BA0181E590E00E94E60140E04B
S113072050E0BA0185E590E00E94E60140E050E027
S1130730BA0189E590E00E94E60140E050E0BA0188
S11307408DE590E00E94E60140E050E0BA0181E6C8
S113075090E00E94E60140E050E0BA0185E690E0B6
S11307600E94E60108951F920F920FB60F92112472
S11307708F9380915E04816080935E048F910F90CB
S11307800FBE0F901F90189589E284B989E085B94E
S113079083E08093690081E08DBB85BD80936E000A
S11307A078949EE088E10FB6F894A8958093600051
S11307B00FBE9093600008950F931F93CF93DF9320
S11307C080E090E00E947501CBEFD3E0888381E064
S11307D090E00E947501898380E290E00E94750197
S11307E08A8385E390E00E9480016B837C838D8300
S11307F09E8382E090E00E9455026F87788B898BFC
S11308009A8B86E090E00E9455026B8B7C8B8D8BDB
S11308109E8B8AE090E00E9455026F8B788F898FBF
S11308209A8F8EE090E00E9455026B8F7C8F8D8FA3
S11308309E8F81E290E00E9455026F8F78A389A376
S11308409AA385E290E00E9455026BA37CA38DA33A
S11308509EA389E290E00E9455026FA378A789A71E
S11308609AA78DE290E00E9455026BA77CA78DA702
S11308709EA789E390E00E9455026FA778AB89ABED
S11308809AAB81E390E00E9480016F837887898727
S11308909A878DE390E00E9480016B877C878D8727
S11308A09E8782E190E00E94BB020EE214E0F80110
S11308B091A780A784E190E00E94BB02F80193A76E
S11308C082A786E190E00E94BB02F80195A784A765
S11308D088E190E00E94BB02F80197A786A781E413
S11308E090E00E94800103ED13E0F80160837183BE
S11308F08283938385E490E00E948001F8016483FD
S113090075838683978389E490E00E948001F801CF
S113091060877187828793878DE490E00E948001CD
S1130920F801648775878687978781E590E00E9440
S11309308001F801608B718B828B938B85E590E04D
S11309400E948001F801648B758B868B978B89E5F7
S113095090E00E948001F801608F718F828F938FE5
S11309608DE590E00E948001F801648F758F868F79
S1130970978F81E690E00E948001F80160A371A343
S113098082A393A385E690E00E948001F80164A30A
S113099075A386A397A38B819C81AD81BE8183308F
S11309A09105A105B10559F154F481309105A105D2
S11309B0B10579F00297A105B105B1F040C08430CA
S11309C09105A105B10531F10597A105B10569F1BD
S11309D036C0EBEFF3E0878D90A1A1A1B2A1838F84
S11309E0948FA58FB68F2BC0EBEFF3E083A194A176
S11309F0A5A1B6A1838F948FA58FB68F20C0EBEFEE
S1130A00F3E087A190A5A1A5B2A5838F948FA58FAC
S1130A10B68F15C0EBEFF3E083A594A5A5A5B6A505
S1130A20838F948FA58FB68F0AC0EBEFF3E087A571
S1130A3090A9A1A9B2A9838F948FA58FB68FDF91B6
S1130A40CF911F910F910895CF92DF92EF92FF9271
S1130A500F931F93CF93DF93823009F48BC018F464
S1130A60813041F006C2833009F404C1843009F4B2
S1130A7081C1FFC180915604909157049A01281BAB
S1130A80390BC9012091BD03E22FF0E0EE0FFF1FE7
S1130A90EE0FFF1FEB5EFC4F092E000CAA0BBB0BE5
S1130AA080839183A283B38381E0820F8093BD030B
S1130AB0861710F01092BD0380E0861710F5E82F1A
S1130AC0F0E0EE0FFF1FEE0FFF1FEB5EFC4F008107
S1130AD0118122813381C0901103D0901203E090E0
S1130AE01303F09014030C0D1D1D2E1D3F1D0093C8
S1130AF011031093120320931303309314038F5F95
S1130B00DCCF262F30E040E050E06091110370917B
S1130B10120380911303909114030E942F11CEE2CB
S1130B20D4E0288B398B4A8B5B8BC0900A04D0901D
S1130B300B04E0900C04F0900D04CA01B9010E946A
S1130B402610A70196010E94B21020E030E040E098
S1130B505FE30E94100F0E94EE0F688379838A83FB
S1130B609B8310921103109212031092130310929C
S1130B7014037FC180915804909159049A01281B51
S1130B80390BC901E091BD03F0E0EE0FFF1FEE0F3A
S1130B90FF1FE759FD4F092E000CAA0BBB0B8083E6
S1130BA09183A283B383809168028F5F80936802EC
S1130BB0861710F01092680280E0861710F5E82F6F
S1130BC0F0E0EE0FFF1FEE0FFF1FE759FD4F00810E
S1130BD0118122813381C0901103D0901203E090DF
S1130BE01303F09014030C0D1D1D2E1D3F1D0093C7
S1130BF011031093120320931303309314038F5F94
S1130C00DCCF262F30E040E050E06091110370917A
S1130C10120380911303909114030E942F11CEE2CA
S1130C20D4E02C8B3D8B4E8B5F8BC0900E04D09008
S1130C300F04E0901004F0901104CA01B9010E945D
S1130C402610A70196010E94B21020E030E040E097
S1130C505FE30E94100F0E94EE0F6C837D838E83EE
S1130C609F83109211031092120310921303109297
S1130C701403FFC080915A0490915B049A01281BCD
S1130C80390BC901E091BD03F0E0EE0FFF1FEE0F39
S1130C90FF1FE054FE4F092E000CAA0BBB0B8083F0
S1130CA09183A283B3838091BF018F5F8093BF013F
S1130CB0861710F01092BF0180E0861710F5E82F18
S1130CC0F0E0EE0FFF1FEE0FFF1FE054FE4F008118
S1130CD0118122813381C0901103D0901203E090DE
S1130CE01303F09014030C0D1D1D2E1D3F1D0093C6
S1130CF011031093120320931303309314038F5F93
S1130D00DCCF262F30E040E050E060911103709179
S1130D10120380911303909114030E942F11CEE2C9
S1130D20D4E0288F398F4A8F5B8FC0901204D09003
S1130D301304E0901404F0901504CA01B9010E9450
S1130D402610A70196010E94B21020E030E040E096
S1130D505FE30E94100F0E94EE0F688779878A87ED
S1130D609B87109211031092120310921303109296
S1130D7014037FC080915C0490915D049A01281B48
S1130D80390BC901E091BD03F0E0EE0FFF1FEE0F38
S1130D90FF1FE95EFE4F092E000CAA0BBB0B8083DC
S1130DA09183A283B383809116018F5F8093160190
S1130DB0861710F01092160180E0861710F5E82FC0
S1130DC0F0E0EE0FFF1FEE0FFF1FE95EFE4F008104
S1130DD0118122813381C0901103D0901203E090DD
S1130DE01303F09014030C0D1D1D2E1D3F1D0093C5
S1130DF011031093120320931303309314038F5F92
S1130E00DCCF262F30E040E050E060911103709178
S1130E10120380911303909114030E942F11CEE2C8
S1130E20D4E02C8F3D8F4E8F5F8FC0901604D090EE
S1130E301704E0901804F0901904CA01B9010E9443
S1130E402610A70196010E94B21020E030E040E095
S1130E505FE30E94100F0E94EE0F6C877D878E87E0
S1130E609F87109211031092120310921303109291
S1130E701403DF91CF911F910F91FF90EF90DF90BA
S1130E80CF9008954F925F926F927F928F929F922C
S1130E90AF92BF92CF92DF92EF92FF92CF93C42F83
S1130EA04130D9F1C42ED12CE12CF12CA7019601AB
S1130EB00E942F1129013A014B015C01A7019601FF
S1130EC0C301B2010E941F116093120170931301B8
S1130ED080931401909315012C2F2695C22ED12CAA
S1130EE0E12CF12C8C149D04AE04BF0474F0AB010E
S1130EF0BC014C0F511D611D711D40931201509393
S1130F0013016093140170931501609112017091A3
S1130F1013018091140190911501CF91FF90EF90EE
S1130F20DF90CF90BF90AF909F908F907F906F9005
S1130F305F904F900895CF93C82FCB01BA01409191
S1130F40FD030E944207EEEBF3E022E02083C1831D
S1130F50628373838483958383E0868367E0CF0110
S1130F600E948B0D80E090E08A30910534F4FC01FE
S1130F70E254FC4F10820196F7CFCF910895EEEB27
S1130F80F3E092E090838183428353836483758387
S1130F9083E0868367E0CF010E948B0D80E090E0C0
S1130FA08A30910534F4FC01E254FC4F108201961E
S1130FB0F7CF0895EEEBF3E092E0908381836283B0
S1130FC083E0838364E0CF010E948B0D80E090E096
S1130FD08A30910534F4FC01E254FC4F10820196EE
S1130FE0F7CF08958F929F92AF92BF92CF92DF92E4
S1130FF0EF92FF9290E0FC013197E333F10508F0A2
S11310009CC4EC5CFF4F0C944E1140912E04509103
S11310102F04609130047091310481E00E949B0799
S11310208CC4409132045091330460913404709123
S1131030350482E00E949B0780C44091360450919D
S11310403704609138047091390483E00E949B074F
S113105074C440913A0450913B0460913C047091F3
S11310603D0484E00E949B0768C440918804509129
S1131070890460918A0470918B0440930A0450930C
S11310800B0460930C0470930D0482E090E00E94C2
S1131090100253C4409188045091890460918A04D9
S11310A070918B0440930E0450930F0460931004CA
S11310B07093110486E090E00E9410023EC44091B7
S11310C088045091890460918A0470918B04409340
S11310D012045093130460931404709315048AE06B
S11310E090E00E94100229C4409188045091890420
S11310F060918A0470918B04EBEFF3E0438F548F7B
S1131100658F768F83819481A581B6818330910523
S1131110A105B10579F154F481309105A105B1051A
S113112079F00297A105B105C1F007C48430910597
S1131130A105B10561F10597A105B105A9F1FDC3AB
S113114040931A0450931B0460931C0470931D0471
S113115081E290E00E941002F0C340931E04509379
S11311601F04609320047093210485E290E00E94A0
S11311701002E3C340932204509323046093240495
S11311807093250489E290E00E941002D6C3409334
S113119026045093270460932804709329048DE255
S11311A090E00E941002C9C340932A0450932B0478
S11311B060932C0470932D0489E390E00E94100244
S11311C0BCC3C0903E04D0903F04E0904004F09033
S11311D04104FF2044F4F094E094D094C094C11CE2
S11311E0D11CE11CF11C60918C0470918D048091E0
S11311F08E0490918F040E9424104B015C01C7015E
S1131200B6010E9426109B01AC01C501B4010E94E5
S11312107C0FAB01BC0140930A0450930B04609310
S11312200C0470930D0482E090E00E94100285C3C8
S1131230C0904204D0904304E0904404F0904504EC
S1131240FF2044F4F094E094D094C094C11CD11CC9
S1131250E11CF11C60918C0470918D0480918E04CA
S113126090918F040E9424104B015C01C701B601C8
S11312700E9426109B01AC01C501B4010E947C0FA1
S1131280AB01BC0140930E0450930F04609310040F
S11312907093110486E090E00E9410024EC3C09047
S11312A04604D0904704E0904804F0904904FF209D
S11312B044F4F094E094D094C094C11CD11CE11C7B
S11312C0F11C60918C0470918D0480918E04909136
S11312D08F040E9424104B015C01C701B6010E94D7
S11312E026109B01AC01C501B4010E947C0FAB0127
S11312F0BC0140931204509313046093140470933C
S113130015048AE090E00E94100217C3C0904A04BA
S1131310D0904B04E0904C04F0904D04FF2044F432
S1131320F094E094D094C094C11CD11CE11CF11C35
S113133060918C0470918D0480918E0490918F043F
S11313400E9424104B015C01C701B6010E942610C3
S11313509B01AC01C501B4010E947C0FAB01BC012F
S1131360EBEFF3E0438F548F658F768F8381948105
S1131370A581B68183309105A105B10579F154F4B5
S113138081309105A105B10579F00297A105B10558
S1131390C1F0D3C284309105A105B10561F105976F
S11313A0A105B105A9F1C9C240931A0450931B04C5
S11313B060931C0470931D0481E290E00E9410026B
S11313C0BCC240931E0450931F0460932004709386
S11313D0210485E290E00E941002AFC240932204EF
S11313E050932304609324047093250489E290E0CD
S11313F00E941002A2C240932604509327046093D3
S11314002804709329048DE290E00E94100295C292
S113141040932A0450932B0460932C0470932D045E
S113142089E390E00E94100288C260918C0460936A
S1131430FD0380E290E00E9467017FC26091FD039A
S11314408FE00E94DA0779C260918C046093FC03F8
S113145081E090E00E94670170C26091FC0381E129
S11314600E94DA076AC260910A0470910B048091A9
S11314700C0490910D040E940E0FAB01BC0182E19B
S11314800E94BF075AC260910E0470910F048091AC
S11314901004909111040E940E0FAB01BC0183E172
S11314A00E94BF074AC26091120470911304809194
S11314B01404909115040E940E0FAB01BC0184E149
S11314C00E94BF073AC2609116047091170480917C
S11314D01804909119040E940E0FAB01BC0185E120
S11314E00E94BF072AC2EEE2F4E060A171A171A7D5
S11314F060A782E190E00E94D6021FC2EEE2F4E00F
S113150062A173A173A762A784E190E00E94D6024E
S113151014C2EEE2F4E064A175A175A764A786E1A4
S113152090E00E94D60209C2EEE2F4E066A177A13F
S113153077A766A788E190E00E94D602FEC1409199
S113154002045091030460910404709105048AE13B
S11315500E94BF07F2C140918C0450918D046091A8
S11315608E0470918F04409302045093030460939B
S113157004047093050481E390E00E94E601DDC158
S113158060918C0470918D0480918E0490918F04ED
S11315906093FE037093FF0380930004909301040F
S11315A0633071058105910569F15CF46130710561
S11315B08105910589F06230710581059105B9F0C5
S11315C041C0643071058105910539F165307105BB
S11315D08105910569F136C0EBEFF3E0C78CD0A02B
S11315E0E1A0F2A0C38ED48EE58EF68E2BC0EBEF75
S11315F0F3E0C3A0D4A0E5A0F6A0C38ED48EE58EFC
S1131600F68E20C0EBEFF3E0C7A0D0A4E1A4F2A4CF
S1131610C38ED48EE58EF68E15C0EBEFF3E0C3A433
S1131620D4A4E5A4F6A4C38ED48EE58EF68E0AC0A7
S1131630EBEFF3E0C7A4D0A8E1A8F2A8C38ED48E40
S1131640E58EF68E85E390E00E94670176C14091B5
S1131650FE035091FF0360910004709101048DE139
S11316600E94BF076AC140918C0450918D0460911F
S11316708E0470918F044093060450930704609382
S11316800804709309048DE390E00E94E60155C1BB
S11316904091060450910704609108047091090474
S11316A08FE10E94BF0749C140918C0450918D0481
S11316B060918E0470918F044093D3035093D403AC
S11316C06093D5037093D60381E490E00E94E60111
S11316D034C14091D3035091D4036091D5037091E8
S11316E0D60381E20E94BF0728C140918C04509127
S11316F08D0460918E0470918F044093D7035093AE
S1131700D8036093D9037093DA0385E490E00E94D0
S1131710E60113C14091D7035091D8036091D903D6
S11317207091DA0383E20E94BF0707C140918C04E1
S113173050918D0460918E0470918F044093DB036B
S11317405093DC036093DD037093DE0389E490E03F
S11317500E94E601F2C04091DB035091DC036091EA
S1131760DD037091DE0385E20E94BF07E6C040916D
S11317708C0450918D0460918E0470918F04409379
S1131780DF035093E0036093E1037093E2038DE47D
S113179090E00E94E601D1C04091DF035091E00344
S11317A06091E1037091E20387E20E94BF07C5C024
S11317B040918C0450918D0460918E0470918F043B
S11317C04093E3035093E4036093E5037093E603CB
S11317D081E590E00E94E601B0C04091E30350919E
S11317E0E4036091E5037091E60389E20E94BF0778
S11317F0A4C040918C0450918D0460918E0470912A
S11318008F044093E7035093E8036093E9037093D4
S1131810EA0385E590E00E94E6018FC04091E7036A
S11318205091E8036091E9037091EA038BE20E940E
S1131830BF0783C040918C0450918D0460918E0445
S113184070918F044093EB035093EC036093ED038A
S11318507093EE0389E590E00E94E6016EC040912A
S1131860EB035091EC036091ED037091EE038DE274
S11318700E94BF0762C040918C0450918D04609116
S11318808E0470918F044093EF035093F0036093A0
S1131890F1037093F2038DE590E00E94E6014DC0E0
S11318A04091EF035091F0036091F1037091F203C2
S11318B08FE20E94BF0741C040918C0450918D0477
S11318C060918E0470918F044093F3035093F4035A
S11318D06093F5037093F60381E690E00E94E601BD
S11318E02CC04091F3035091F4036091F50370917F
S11318F0F60381E30E94BF0720C040918C045091FD
S11319008D0460918E0470918F044093F70350937B
S1131910F8036093F9037093FA0385E690E00E945C
S1131920E6010BC04091F7035091F8036091F9036D
S11319307091FA0383E30E94BF071092D2031092BE
S11319408C0410928D0410928E0410928F041092C5
S113195088041092890410928A0410928B04FF90D8
S1131960EF90DF90CF90BF90AF909F908F900895AD
S11319700E94C4030E94B3000E94E4000E945C0D14
S1131980189929C00E94E60285B1806285B92FEFBB
S113199081EE94E0215080409040E1F700C00000C7
S11319A085B18F7D85B92FEF81EE94E02150804081
S11319B09040E1F700C0000085B1806285B92FEF47
S11319C081EE94E0215080409040E1F700C0000097
S11319D085B18F7D85B91C9B06C085B1806285B9B0
S11319E086E08093C2000E94DC03A8950E94420E08
S11319F08093D2030E94F20780915E0480FFF5CFAA
S1131A008E7F80935E04809100018230E1F018F4AF
S1131A10813031F0EACF833049F18430D1F1E5CF20
S1131A200E94150190934F0480934E046091FC032F
S1131A30AC01809100010E94240582E080930001A2
S1131A400E943C01D2CF0E941501909351048093CF
S1131A5050046091FC03AC01809100010E942405B4
S1131A6083E0809300010E943C01BFCF0E941501D6
S1131A7090935304809352046091FC03AC018091D1
S1131A8000010E94240584E0809300010E943C012F
S1131A90ACCF0E9415019093550480935404609137
S1131AA0FC03AC01809100010E94240581E0809335
S1131AB000010E943C0199CF87E690E09093C50015
S1131AC08093C400E1ECF0E088E180838081806849
S1131AD0808386E28093C20008951F920F920FB60E
S1131AE00F9211248F93809194048A3F28F480915B
S1131AF094048F5F8093940480919404893F29F423
S1131B001092930481E0809390048F910F900FBE04
S1131B100F901F901895DC0180919204811128C0C8
S1131B2020E030E0462F50E0241735075CF4FD0137
S1131B30E20FF31F9081F901E05AFB4F90832F5F6E
S1131B403F4FF0CFE0919204F0E0E05AFB4F8081E8
S1131B508093C600809192048F5F80939204E1EC9D
S1131B60F0E08081806280836093910481E0089535
S1131B7080E008951F920F920FB60F9211248F9355
S1131B809F93EF93FF9390919204809191049817FF
S1131B9070F4E0919204F0E0E05AFB4F808180936E
S1131BA0C600809192048F5F8093920407C01092C4
S1131BB09204E1ECF0E080818F7D8083FF91EF91CE
S1131BC09F918F910F900FBE0F901F9018951F92A9
S1131BD00F920FB60F9211248F93EF93FF931092ED
S1131BE09404E0919304F0E08091C600EC58FB4F1C
S1131BF08083809193048F5F8093930480919304F6
S1131C00833110F010929304FF91EF918F910F9014
S1131C100FBE0F901F90189580E0823138F4E82FA2
S1131C20F0E0EC58FB4F10828F5FF7CF0895FC0172
S1131C306581862F90E0A0E0B0E0BA2FA92F982FFD
S1131C4088272481822BBA2FA92F982F88272381B4
S1131C50822BBA2FA92F982F88272281BC01CD016E
S1131C60622B089584E794E00E94170E60938C041D
S1131C7070938D0480938E0490938F040E940C0EB5
S1131C800895089580919004882309F4C5C01092A2
S1131C90900480917404823009F0A7C090917A0472
S1131CA0933009F0A2C0E09175044E2F50E0FA0180
S1131CB03697ED32F10508F098C0E959FF4F0C94BE
S1131CC04E1184E794E00E94170E0E94410E609327
S1131CD088047093890480938A0490938B040E94EF
S1131CE00C0E86E0089584E794E00E94170E0E948B
S1131CF0410E609388047093890480938A049093BE
S1131D008B040E940C0E87E0089584E794E00E94FF
S1131D10170E0E94410E6093880470938904809387
S1131D208A0490938B040E940C0E88E0089584E743
S1131D3094E00E94170E0E94410E609388047093F1
S1131D40890480938A0490938B040E940C0E89E08A
S1131D5008950E94320E8AE008950E94320E8BE0AC
S1131D6008950E94320E8CE008950E94320E8DE098
S1131D7008950E94320E8EE008950E94320E80E192
S1131D8008950E94320E8BE108950E94320E8CE178
S1131D9008950E94320E8EE108950E94320E80E270
S1131DA008950E94320E82E208950E94320E84E267
S1131DB008950E94320E86E208950E94320E88E24F
S1131DC008950E94320E8AE208950E94320E8CE237
S1131DD008950E94320E8EE208950E94320E80E32E
S1131DE008950E94320E82E30895823089F480912E
S1131DF07604833069F480917A04811109C080915A
S1131E00750480935F040E940C0E80915F04089512
S1131E100E940C0E80E0089580E0089508955058C3
S1131E20BB27AA270E94270F0C9478100E946A10DF
S1131E3038F00E94711020F039F49F3F19F426F411
S1131E400C9467100EF4E095E7FB0C946110E92FF5
S1131E500E94891058F3BA1762077307840795071D
S1131E6020F079F4A6F50C94AB100EF4E0950B2E4B
S1131E70BA2FA02D0B01B90190010C01CA01A001D8
S1131E801124FF27591B99F0593F50F4503E68F133
S1131E901A16F040A22F232F342F4427585FF3CF74
S1131EA0469537952795A795F0405395C9F77EF445
S1131EB01F16BA0B620B730B840BBAF09150A1F08E
S1131EC0FF0FBB1F661F771F881FC2F70EC0BA0F14
S1131ED0621F731F841F48F4879577956795B7959C
S1131EE0F7959E3F08F0B0CF9395880F08F0992797
S1131EF0EE0F9795879508950E94900F0C94781093
S1131F000E94711058F00E946A1040F029F45F3F5B
S1131F1029F00C94611051110C94AC100C946710BE
S1131F200E94891068F39923B1F3552391F3951B0B
S1131F30550BBB27AA2762177307840738F09F5FE6
S1131F405F4F220F331F441FAA1FA9F335D00E2E53
S1131F503AF0E0E832D091505040E695001CCAF7C0
S1131F602BD0FE2F29D0660F771F881FBB1F261783
S1131F7037074807AB07B0E809F0BB0B802DBF015A
S1131F80FF2793585F4F3AF09E3F510578F00C9429
S1131F9061100C94AC105F3FE4F3983ED4F3869543
S1131FA077956795B795F7959F5FC9F7880F911D4A
S1131FB09695879597F90895E1E0660F771F881F36
S1131FC0BB1F621773078407BA0720F0621B730BE9
S1131FD0840BBA0BEE1F88F7E09508950E94F50F65
S1131FE06894B1110C94AC1008950E94911088F07B
S1131FF09F5798F0B92F9927B751B0F0E1F0660FC9
S1132000771F881F991F1AF0BA95C9F714C0B13009
S113201091F00E94AB10B1E008950C94AB10672FBF
S1132020782F8827B85F39F0B93FCCF38695779538
S11320306795B395D9F73EF4909580957095619521
S11320407F4F8F4F9F4F0895E89409C097FB3EF44C
S113205090958095709561957F4F8F4F9F4F9923F1
S1132060A9F0F92F96E9BB279395F695879577956F
S11320706795B795F111F8CFFAF4BB0F11F460FF2F
S11320801BC06F5F7F4F8F4F9F4F16C0882311F087
S113209096E911C0772321F09EE8872F762F05C09B
S11320A0662371F096E8862F70E060E02AF09A9536
S11320B0660F771F881FDAF7880F9695879597F92B
S11320C0089597F99F6780E870E060E008959FEFB6
S11320D080EC089500240A941616170618060906BB
S11320E0089500240A94121613061406050608958A
S11320F0092E0394000C11F4882352F0BB0F40F412
S1132100BF2B11F460FF04C06F5F7F4F8F4F9F4F51
S1132110089557FD9058440F551F59F05F3F71F0D3
S11321204795880F97FB991F61F09F3F79F087953A
S11321300895121613061406551FF2CF4695F1DFC3
S113214008C0161617061806991FF1CF8695710553
S1132150610508940895E894BB2766277727CB0187
S113216097F908950E94C5100C9478100E946A1083
S113217038F00E94711020F0952311F00C94611036
S11321800C94671011240C94AC100E94891070F305
S1132190959FC1F3950F50E0551F629FF001729F08
S11321A0BB27F00DB11D639FAA27F00DB11DAA1F17
S11321B0649F6627B00DA11D661F829F2227B00D64
S11321C0A11D621F739FB00DA11D621F839FA00DEF
S11321D0611D221F749F3327A00D611D231F849F3F
S11321E0600D211D822F762F6A2F11249F57504096
S11321F09AF0F1F088234AF0EE0FFF1FBB1F661F11
S1132200771F881F91505040A9F79E3F510580F0D9
S11322100C9461100C94AC105F3FE4F3983ED4F33B
S1132220869577956795B795F795E7959F5FC1F77D
S1132230FE2B880F911D9695879597F90895DB01DC
S11322408F939F930E945411BF91AF91A29F800DD1
S1132250911DA39F900DB29F900D11240895052EFA
S113226097FB1EF400940E94461157FD07D00E946C
S11322705F1107FC03D04EF40C9446115095409521
S1132280309521953F4F4F4F5F4F0895909580951E
S1132290709561957F4F8F4F9F4F0895EE0FFF1FED
S11322A00590F491E02D09940E948111A59F900D51
S11322B0B49F900DA49F800D911D11240895A1E257
S11322C01A2EAA1BBB1BFD010DC0AA1FBB1FEE1FAC
S11322D0FF1FA217B307E407F50720F0A21BB30BF7
S11322E0E40BF50B661F771F881F991F1A9469F773
S11322F060957095809590959B01AC01BD01CF01CF
S11323000895A29FB001B39FC001A39F700D811DCA
S11323101124911DB29F700D811D1124911D0895EA
S1072320F894FFCF5B
S10523240100B2
S9030000FC
